:020000040800F2
:1000000000500020A5140008ED140008ED140008AD
:10001000ED140008ED140008ED14000800000000C5
:10002000000000000000000000000000ED140008C7
:10003000ED14000800000000ED140008BF120008D5
:10004000ED140008ED140008ED140008ED1400088C
:10005000ED140008ED140008ED140008ED1400087C
:10006000ED140008ED140008ED140008ED1400086C
:10007000ED140008ED140008ED140008ED1400085C
:10008000ED140008ED140008ED140008ED1400084C
:10009000ED140008ED140008ED140008ED1400083C
:1000A000ED140008ED140008ED140008ED1400082C
:1000B000ED140008ED140008ED140008ED1400081C
:1000C000ED140008ED140008ED140008ED1400080C
:1000D000ED140008ED140008ED140008ED140008FC
:1000E000ED140008ED140008ED14000800000000F5
:1000F0000000000000000000000000000000000000
:0C01000000000000000000005FF808F1A3
:1001100010B5054C237833B9044B13B10448AFF341
:1001200000800123237010BDDC01002000000000CE
:100130006C40000808B5034B1BB103490348AFF3FB
:10014000008008BD00000000E00100206C400008B5
:10015000034613F8012B002AFBD1181A0138704707
:1001600081F0004102E000BF83F0004330B54FEA68
:1001700041044FEA430594EA050F08BF90EA020FD5
:100180001FBF54EA000C55EA020C7FEA645C7FEA68
:10019000655C00F0E2804FEA5454D4EB5555B8BF8B
:1001A0006D420CDD2C4480EA020281EA030382EAFC
:1001B000000083EA010180EA020281EA0303362D8E
:1001C00088BF30BD11F0004F4FEA01314FF4801C61
:1001D0004CEA113102D0404261EB410113F0004F73
:1001E0004FEA03334CEA133302D0524263EB43032A
:1001F00094EA050F00F0A780A4F10104D5F1200EC8
:100200000DDB02FA0EFC22FA05F2801841F1000122
:1002100003FA0EF2801843FA05F359410EE0A5F1F6
:1002200020050EF1200E012A03FA0EFC28BF4CF027
:10023000020C43FA05F3C01851EBE37101F00045DD
:1002400007D54FF0000EDCF1000C7EEB00006EEBEA
:100250000101B1F5801F1BD3B1F5001F0CD3490874
:100260005FEA30004FEA3C0C04F101044FEA4452CB
:1002700012F5800F80F09A80BCF1004F08BF5FEA52
:10028000500C50F1000041EB045141EA050130BD32
:100290005FEA4C0C404141EB0101013C28BFB1F544
:1002A000801FE9D291F0000F04BF01460020B1FA8F
:1002B00081F308BF2033A3F10B03B3F120020CDA62
:1002C0000C3208DD02F1140CC2F10C0201FA0CF040
:1002D00021FA02F10CE002F11402D8BFC2F1200CA5
:1002E00001FA02F120FA0CFCDCBF41EA0C0190405B
:1002F000E41AA2BF01EB0451294330BD6FEA0404A4
:100300001F3C1CDA0C340EDC04F11404C4F120028E
:1003100020FA04F001FA02F340EA030021FA04F3A0
:1003200045EA030130BDC4F10C04C4F1200220FAF7
:1003300002F001FA04F340EA0300294630BD21FA35
:1003400004F0294630BD94F0000F83F4801306BFFB
:1003500081F480110134013D4EE77FEA645C18BFEF
:100360007FEA655C29D094EA050F08BF90EA020F86
:1003700005D054EA000C04BF1946104630BD91EA7E
:10038000030F1EBF0021002030BD5FEA545C05D181
:100390004000494128BF41F0004130BD14F58004C0
:1003A0003CBF01F5801130BD01F0004545F0FE4134
:1003B00041F470014FF0000030BD7FEA645C1ABF69
:1003C000194610467FEA655C1CBF0B46024650EAA0
:1003D000013406BF52EA033591EA030F41F40021CC
:1003E00030BD00BF90F0000F04BF0021704730B552
:1003F0004FF4806404F132044FF000054FF0000127
:1004000050E700BF90F0000F04BF0021704730B5E7
:100410004FF4806404F1320410F0004548BF4042BC
:100420004FF000013EE700BF42004FEAE2014FEA11
:1004300031014FEA02701FBF12F07F4393F07F4FEC
:1004400081F06051704732F07F4208BF704793F0EF
:100450007F4F04BF41F40021704730B54FF4607402
:1004600001F0004521F000411CE700BF50EA010205
:1004700008BF704730B54FF000050AE050EA0102AE
:1004800008BF704730B511F0004502D5404261EB1E
:1004900041014FF4806404F132045FEA915C3FF45F
:1004A000D8AE4FF003025FEADC0C18BF03325FEAFC
:1004B000DC0C18BF033202EBDC02C2F1200300FAAD
:1004C00003FC20FA02F001FA03FE40EA0E0021FAD2
:1004D00002F11444BDE600BF70B54FF0FF0C4CF4C0
:1004E000E06C1CEA11541DBF1CEA135594EA0C0F72
:1004F00095EA0C0F00F0DEF82C4481EA030621EAAD
:100500004C5123EA4C5350EA013518BF52EA0335E7
:1005100041F4801143F4801338D0A0FB02CE4FF099
:100520000005E1FB02E506F00042E0FB03E54FF0C9
:100530000006E1FB03569CF0000F18BF4EF0010EC1
:10054000A4F1FF04B6F5007F64F5407404D25FEABD
:100550004E0E6D4146EB060642EAC62141EA555170
:100560004FEAC52040EA5E504FEACE2EB4F1FD0CB2
:1005700088BFBCF5E06F1ED8BEF1004F08BF5FEA30
:10058000500E50F1000041EB045170BD06F00046E2
:1005900046EA010140EA020081EA0301B4EB5C048F
:1005A000C2BFD4EB0C0541EA045170BD41F4801187
:1005B0004FF0000E013C00F3AB8014F1360FDEBFAC
:1005C000002001F0004170BDC4F10004203C35DA88
:1005D0000C341BDC04F11404C4F1200500FA05F30B
:1005E00020FA04F001FA05F240EA020001F00042AC
:1005F00021F0004110EBD37021FA04F642EB060122
:100600005EEA430E08BF20EAD37070BDC4F10C044B
:10061000C4F1200500FA04F320FA05F001FA04F20F
:1006200040EA020001F0004110EBD37041F10001FB
:100630005EEA430E08BF20EAD37070BDC4F1200506
:1006400000FA05F24EEA020E20FA04F301FA05F26E
:1006500043EA020321FA04F001F0004121FA04F216
:1006600020EA020000EBD3705EEA430E08BF20EAE6
:10067000D37070BD94F0000F0FD101F00046400020
:1006800041EB010111F4801F08BF013CF7D041EAA2
:10069000060195F0000F18BF704703F000465200A6
:1006A00043EB030313F4801F08BF013DF7D043EA77
:1006B0000603704794EA0C0F0CEA135518BF95EA2D
:1006C0000C0F0CD050EA410618BF52EA4306D1D1B4
:1006D00081EA030101F000414FF0000070BD50EAD3
:1006E000410606BF1046194652EA430619D094EA5D
:1006F0000C0F02D150EA013613D195EA0C0F05D147
:1007000052EA03361CBF104619460AD181EA03019A
:1007100001F0004141F0FE4141F470014FF0000052
:1007200070BD41F0FE4141F4780170BD70B54FF0ED
:10073000FF0C4CF4E06C1CEA11541DBF1CEA13556D
:1007400094EA0C0F95EA0C0F00F0A7F8A4EB05044F
:1007500081EA030E52EA03354FEA013100F0888046
:100760004FEA03334FF0805545EA131343EA12630F
:100770004FEA022245EA111545EA10654FEA0026C4
:100780000EF000419D4208BF964244F1FD0404F57D
:10079000407402D25B084FEA3202B61A65EB0305D9
:1007A0005B084FEA32024FF480104FF4002CB6EB96
:1007B000020E75EB030E22BFB61A754640EA0C0016
:1007C0005B084FEA3202B6EB020E75EB030E22BF56
:1007D000B61A754640EA5C005B084FEA3202B6EB97
:1007E000020E75EB030E22BFB61A754640EA9C0056
:1007F0005B084FEA3202B6EB020E75EB030E22BF26
:10080000B61A754640EADC0055EA060E18D04FEAE3
:10081000051545EA16754FEA06164FEAC30343EA83
:1008200052734FEAC2025FEA1C1CC0D111F4801F50
:100830000BD141EA00014FF000004FF0004CB6E749
:1008400011F4801F04BF01430020B4F1FD0C88BFE8
:10085000BCF5E06F3FF6AFAEB5EB030C04BFB6EBF3
:10086000020C5FEA500C50F1000041EB045170BDE6
:100870000EF0004E4EEA113114EB5C04C2BFD4EB13
:100880000C0541EA045170BD41F480114FF0000E97
:10089000013C90E645EA060E8DE60CEA135594EA13
:1008A0000C0F08BF95EA0C0F3FF43BAF94EA0C0F16
:1008B0000AD150EA01347FF434AF95EA0C0F7FF48B
:1008C00025AF104619462CE795EA0C0F06D152EADF
:1008D00003353FF4FDAE1046194622E750EA4106C3
:1008E00018BF52EA43067FF4C5AE50EA41047FF4D4
:1008F0000DAF52EA43057FF4EBAE12E74FF0FF3C39
:1009000006E000BF4FF0010C02E000BF4FF0010C09
:100910004DF804CD4FEA410C7FEA6C5C4FEA430C82
:1009200018BF7FEA6C5C1BD001B050EA410C0CBFD1
:1009300052EA430C91EA030F02BF90EA020F002033
:10094000704710F1000F91EA030F58BF994208BF9A
:1009500090422CBFD8176FEAE37040F00100704757
:100960004FEA410C7FEA6C5C02D150EA013C07D1AE
:100970004FEA430C7FEA6C5CD6D152EA033CD3D0F9
:100980005DF8040B704700BF8446104662468C46F3
:100990001946634600E000BF01B5FFF7B7FF002826
:1009A00048BF10F1000F01BD4DF808EDFFF7F4FF4F
:1009B0000CBF012000205DF808FB00BF4DF808EDDA
:1009C000FFF7EAFF34BF012000205DF808FB00BFFD
:1009D0004DF808EDFFF7E0FF94BF012000205DF81F
:1009E00008FB00BF4DF808EDFFF7CEFF94BF0120D4
:1009F00000205DF808FB00BF4DF808EDFFF7C4FFCD
:100A000034BF012000205DF808FB00BF4FEA410C15
:100A10007FEA6C5C02D150EA013C0AD14FEA430CF8
:100A20007FEA6C5C02D152EA033C02D14FF0000035
:100A300070474FF0010070474FEA410212F5001273
:100A400015D211D56FF47873B3EB625212D94FEA15
:100A5000C12343F0004343EA505311F0004F23FAFF
:100A600002F018BF404270474FF00000704750EA54
:100A7000013005D111F0004008BF6FF00040704711
:100A80004FF00000704700BF80B483B000AF034652
:100A9000FB71FB79002B0AD00D4B1B68DA680D4BFC
:100AA0001B8819460A4B1B680A43DA600AE0084BA8
:100AB0001B68DA68074B1B88DB431946044B1B682D
:100AC0000A40DA6000BF0C37BD4680BC704700BFEB
:100AD000F8010020FC01002080B483B000AF034681
:100AE000FB71FB79002B0AD00D4B1B68DA680D4BAC
:100AF0001B8819460A4B1B680A43DA600AE0084B58
:100B00001B68DA68074B1B88DB431946044B1B68DC
:100B10000A40DA6000BF0C37BD4680BC704700BF9A
:100B2000F8010020FE01002080B500AF0120FFF792
:100B3000ABFF0120FFF7D0FF012000F0ABFB00204E
:100B4000FFF7CAFF00BF80BD80B500AF0020FFF7F0
:100B50009BFF012000F09EFB0120FFF795FF012085
:100B600000F098FB0020FFF78FFF00BF80BD80B52D
:100B700000AF0020FFF788FF012000F08BFB002072
:100B8000FFF7AAFF012000F085FB0120FFF77CFFA3
:100B9000012000F07FFB0120FFF79EFF00BF80BD1A
:100BA00080B584B000AF0346FB710023FB731DE0EA
:100BB0000020FFF769FFFB7903F00103002B03D04E
:100BC0000120FFF789FF02E00020FFF785FF0120E9
:100BD00000F060FBFB795B08FB710120FFF754FF1D
:100BE000012000F057FBFB7B0133FB73FB7B072BE2
:100BF000DED900BF00BF1037BD4680BD80B582B0D2
:100C000000AF78600B467B8013463B80074A7B68C9
:100C10001360074A7B881380064A3B8813800420B0
:100C200000F06EF800BF0837BD4680BDF801002017
:100C3000FC010020FE01002080B584B000AF786088
:100C40000B46FB707B681B781A462B4B9A5C7B68C3
:100C50001A707B6801331B781A46274B9B5C5BB28A
:100C6000FA78002A02D06FF07F0200E000221343DE
:100C70005AB27B680133D2B21A707B6802331B7898
:100C800019467B6802331C4A525C1A707B68033336
:100C90001B7819467B680333174A525C1A70FFF7BA
:100CA00043FF4020FFF77CFFFFF74EFFFFF75FFF9A
:100CB000FFF73AFFC020FFF773FFFFF745FF002360
:100CC000FB730BE0FB7B7A6813441B781846FFF735
:100CD00067FFFFF739FFFB7B0133FB73FB7B032BC4
:100CE000F0D9FFF744FF054B1B78184600F008F8D1
:100CF00000BF1037BD4680BD00000020000200206C
:100D000080B582B000AF0346FB710B4AFB791370CC
:100D1000FFF70AFF084B1B7803F00703DBB2783BB1
:100D2000DBB21846FFF73CFFFFF70EFFFFF71FFF90
:100D300000BF0837BD4680BD0002002080B582B0EC
:100D400000AF1B4B7B6000F0DBF91A4800F05EFA45
:100D500000F0C0FA00F006FB00F06AF800F0BCF802
:100D600000F0ECF800F050F94FF400624FF48061AD
:100D70001148FFF743FF3B1D01211846FFF75CFFB9
:100D80000E4801F0AFF800F02DF90346184600F0C8
:100D900093F800F0C3F80346184600F07DF80848C1
:100DA00001F0A0F84FF47A7000F074FAEBE700BF9E
:100DB0000102030440190100000C014088400008B2
:100DC000A040000880B584B000AF78607B68DBB2DB
:100DD0003B7307F10C0364220121184600F01EFB4F
:100DE0007B6818461037BD4680BD80B586B000AF21
:100DF000F860B9607A6000237B6109E0BB685A1C27
:100E0000BA601B781846FFF7DDFF7B6901337B6111
:100E10007A697B689A42F1DB7B6818461837BD46D1
:100E200080BD80B400AF00BFBD4680BC70470000ED
:100E300080B400AF164B9B69154A43F008039361D9
:100E4000144B5B68134A23F440135360114B5B68E7
:100E5000104A43F4001353600E4B5B680D4A23F0B5
:100E6000407353600B4B5B680A4A43F00073536056
:100E7000084B5B68074A23F440035360054B5B68EB
:100E8000044A23F04063536000BFBD4680BC7047F6
:100E900000100240000C014080B483B000AF034654
:100EA000FB71044AFB79136000BF0C37BD4680BC60
:100EB000704700BFB481214280B483B000AF0346C5
:100EC000FB71044AFB79136000BF0C37BD4680BC40
:100ED000704700BFB881214280B400AF0D4B9B69C1
:100EE0000C4A43F0040393610B4B1B680A4A23F03E
:100EF00003031360084B1B68074A23F00C031360BD
:100F0000054B1B68044A43F00403136000BFBD4651
:100F100080BC7047001002400008014080B400AF60
:100F2000054B1B68002B14BF01230023DBB21846BE
:100F3000BD4680BC704700BF0001214280B400AFB5
:100F4000254B9B69244A43F004039361234B5B6860
:100F5000224A23F003035360204B5B681F4A23F0AF
:100F60000C0353601D4B5B681C4A43F00403536041
:100F7000194B9B69184A43F004039361174B5B6854
:100F8000164A23F040535360144B5B68134A23F016
:100F900040435360114B5B68104A43F080435360F9
:100FA0000D4B9B690C4A43F0010393610A4B9B690B
:100FB000094A43F080539361094B5B68084A23F068
:100FC000E0635360064B5B68054A43F0007353606F
:100FD00000BFBD4680BC70470010024000080140C1
:100FE0000000014080B400AF064B9B6803F480739F
:100FF000002B14BF01230023DBB21846BD4680BC82
:10100000704700BF0008014080B400AF164B9B69D9
:10101000154A43F008039361144B5B68134A23F4A9
:1010200040735360114B5B68104A43F40073536084
:101030000E4B5B680D4A23F4405353600B4B5B68C7
:101040000A4A43F400535360084B5B68074A23F491
:1010500040635360054B5B68044A23F4404353608C
:1010600000BFBD4680BC704700100240000C01402C
:1010700080B483B000AF0346FB7197F90730002BB3
:101080000CDBFB7903F01F02074997F907305B0976
:10109000012000FA02F2603341F8232000BF0C3730
:1010A000BD4680BC704700BF00E100E080B483B063
:1010B00000AF03463960FB7197F90730002B0ADB5C
:1010C0003B68DAB20C4997F907301201D2B20B44EF
:1010D00083F800230AE03B68DAB20849FB7903F0A1
:1010E0000F03043B1201D2B20B441A7600BF0C3737
:1010F000BD4680BC704700BF00E100E000ED00E0AD
:1011000080B400AF3F4B5B683E4A23F470135360DA
:101110003C4B5B683B4A43F4E0135360394B5B68DC
:10112000384A23F480035360364B1B68354A43F436
:101130008033136000BF334B1B6803F40033002B74
:10114000F9D0304B5B682F4A43F4803353602D4B0A
:101150001B682C4A43F08073136000BF294B1B6847
:1011600003F00073002BF9D0274B1B68264A23F0AD
:1011700007031360244B1B68234A43F002031360E8
:10118000214B1B68204A43F0100313601D4B5B6822
:101190001C4A23F0030353601A4B5B68194A43F05F
:1011A0000203536000BF174B5B6803F00803002B7A
:1011B000F9D0144B5B68134A23F0F0035360114BD2
:1011C0005B68104A23F4E06353600E4B5B680D4A82
:1011D00043F4806353600B4B5B680A4A23F460530B
:1011E0005360084B5B68074A23F440435360054B48
:1011F0005B68044A43F40043536000BFBD4680BCB3
:10120000704700BF001002400020024080B582B04D
:1012100000AF7860124B00221A60114A7B68013BD4
:10122000536000214FF0FF30FFF740FF0C4B0022CE
:101230009A600B4B1B680A4A43F004031360084B87
:101240001B68074A43F002031360054B1B68044AFE
:1012500043F00103136000BF0837BD4680BD00BFE7
:1012600010E000E080B400AF044B1B680133034A78
:10127000136000BFBD4680BC704700BF0402002061
:1012800080B400AF024B1B681846BD4680BC704757
:101290000402002080B584B000AF7860FFF7F0FF53
:1012A000F86000BFFFF7ECFF0246FB68D31A7A68CC
:1012B0009A42F7D800BF00BF1037BD4680BD80B549
:1012C00000AF4FF0FF30FFF7D3FEFFF7CBFF00BFBB
:1012D00080BD000080B400AF1F4B9B691E4A43F0E5
:1012E000040393611C4B9B691B4A43F00103936108
:1012F0001A4B5B68194A23F0C0035360174B5B68B5
:10130000164A43F080035360144B5B68134A23F47E
:1013100040635360114B5B68104A43F48063536031
:101320000E4B5B680D4A23F0300353600B4B5B6838
:101330000A4A43F010035360084B5B68074A23F4E2
:1013400040735360064B5B68054A23F00403536007
:1013500000BFBD4680BC704700100240000801403D
:101360000000014080B400AF2A4B9B69294A43F436
:1013700080439361284BDB68274A43F00803D3601E
:10138000254BDB68244A23F40073D360224BDB68CF
:10139000214A23F48063D3601F4BDB681E4A23F489
:1013A0008053D3601C4B1B691B4A23F440531361C9
:1013B000194B5B69184A23F400735361164B5B6940
:1013C000154A23F480735361134B00229A60124B29
:1013D0009B68114A43F41C7393600F4B9B680E4A41
:1013E00043F0010393600C4B1B690B4A23F49043B9
:1013F0001361094B5B69084A23F02A035361064BCA
:10140000DB68054A43F40053D36000BFBD4680BC8F
:10141000704700BF001002400038014080B586B020
:1014200000AFF8600B467A60FB720023FB75FFF794
:1014300027FF386119E01A4B1B6803F08003002B6B
:1014400009D0FB7DFA6813441A78154B5A60FB7D6E
:101450000133FB7509E0FFF713FF02463B69D31A1E
:101460007A689A4201D8002315E0FA7DFB7A9A4205
:10147000E1D309E0FFF704FF02463B69D31A7A681B
:101480009A4201D8002306E0054B1B6803F0400395
:10149000002BEFD1012318461837BD4680BD00BF91
:1014A000003801400C480D490D4A002302E0D45891
:1014B000C4500433C4188C42F9D30A4A0A4C00239E
:1014C00001E013600432A242FBD3FFF7AAFC00F054
:1014D0000FF8FFF733FC704700000020DC0100200C
:1014E000A4440008DC01002024020020FEE70000E4
:1014F00070B500260C4D0D4C641BA410A64209D1FA
:1015000002F0B4FD00260A4D0A4C641BA410A6424A
:1015100005D170BD55F8043B98470136EEE755F804
:10152000043B98470136F2E79C4400089C440008BD
:101530009C440008A044000803460244934200D1A2
:10154000704703F8011BF9E7002B2DE9F0471F4610
:10155000BBBF03F100431F4600232D2388B0144670
:10156000129A109D1370149BDDF84CA023F02008F4
:10157000B8F1460F05D0B8F1450F00D1013502236F
:1015800000E0032307AA049206AACDE902A2CDE94E
:10159000003522463B4600F0FBFDB8F1470F0646FA
:1015A00002D1119BDB0722D5B8F1460F06EB0509E6
:1015B00010D13378302B0AD100220023204639463F
:1015C000FFF7F2F918B9C5F10105CAF80050DAF8C9
:1015D000003099440022002320463946FFF7E4F901
:1015E00008B1CDF81C903022079B4B4507D33046FD
:1015F000079B159A9B1B136008B0BDE8F087591C28
:1016000007911A70F0E70346F7B5002903F8022B9B
:10161000B6BF2D222B224942092942702BDD0DF144
:101620000704A4460A2791FBF7F60A46A64607FBDD
:101630001615632A05F13005314604F1FF340EF822
:10164000015CF0DC3031AEF1020504F8011C2946E2
:10165000441C61450AD30DF10902A2EB0E02654557
:1016600088BF00221344181A03B0F0BD11F8012BF3
:1016700004F8012FEDE7302330318370C170031D72
:10168000F1E700002DE9F04F91B00C46DDF86880DD
:1016900016461F46054601F021FD036818460993CA
:1016A000FEF756FD00230E93D8F800300A9007335A
:1016B00023F0070303F1080294F81890D4F800B05F
:1016C000C8F80020D3E90023C4E91223D4E9128A20
:1016D0002AF000430B934FF0FF3240469C4B0B998E
:1016E000FFF794F970BB4FF0FF324046984B0B99CF
:1016F000FFF76EF930BB0022002340465146FFF74A
:101700005DF910B12D2384F84330924B9248B9F122
:10171000470F94BF9846804603234FF0000A236189
:101720002BF00403236033462146284600970FAA76
:1017300000F0D4F9013040F090804FF0FF3011B04C
:10174000BDE8F08F4246534640465146FFF75EF9EA
:1017500048B1BAF1000FB8BF2D238048B8BF84F854
:1017600043307F4BD3E7636809F0DF015A1C42D155
:1017700006236360002206920EAACDE904920DAA08
:101780004BF4806303920DF13302CDE90132236003
:10179000636842460093284653460B91FFF7D4FEF8
:1017A0000B99804647290D9908D1C81C02DB636854
:1017B000994240DDA9F102095FFA89F9B9F1650F93
:1017C0001FD84A46013904F150000D91FFF71BFF65
:1017D0000E9A82461318012A236102DC2268D2077E
:1017E00001D5013323619DF83330002B9BD02D238D
:1017F00084F8433097E74729BCD1002BBAD10123A5
:10180000B7E7B9F1660F18D1002963680BDD2161D4
:1018100013B92268D00702D501330B4423614FF07E
:10182000000AA165DFE713B92268D20701D50233A8
:10183000F4E70123F2E74FF067090E9B994205DBBD
:1018400023682161D807EAD54B1CE7E70029CCBF04
:101850000122C1F102021344E0E723685A0507D4CC
:101860002369424631462846B84701302BD164E708
:10187000B9F1650F40F2DD80D4E9120100220023A6
:10188000FFF792F8002833D0012331462846354A25
:10189000B84701303FF451AFDDE90D239A4202DB36
:1018A0002368D8070FD5DDE9092331462846B84714
:1018B00001303FF442AF4FF0000804F11A090E9BCB
:1018C000013B434509DC23689B0700F10281E06886
:1018D0000F9B9842B8BF184631E701234A4631466C
:1018E0002846B84701303FF428AF08F10108E6E781
:1018F0000D9B002B38DC012331462846194AB84796
:1019000001303FF41AAFDDE90D23134302D1236800
:10191000D907D8D5DDE9092331462846B847013033
:101920003FF40BAF4FF0000904F11A0A0D9B5B4224
:101930004B4501DC0E9B94E7012352463146284675
:10194000B84701303FF4F9AE09F10109EEE700BFF5
:10195000FFFFEF7FBC400008C0400008C8400008FF
:10196000C4400008CC4000080E9AA36D9A42A8BF5C
:101970001A46002A914637DC4FF0000B29EAE97934
:1019800004F11A02D4F858A0AAEB09035B4533DC32
:10199000DDE90D239A423BDB2368DA0738D40E9A3F
:1019A0000D99A2EB0A03A2EB01099945A8BF99463C
:1019B000B9F1000F34DC4FF0000829EAE97904F1AD
:1019C0001A0ADDE90D239B1AA3EB090343457FF7B0
:1019D0007AAF0123524631462846B84701303FF4DA
:1019E000ACAE08F10108ECE7134631464246284602
:1019F000B8470130C0D1A0E60123314628460B92FA
:101A0000B84701303FF499AE0B9A0BF1010BB9E7DF
:101A10003146DDE909232846B8470130BFD18CE6BD
:101A20004B463146284608EB0A02B8470130C2D17E
:101A300083E60E9A012A01DCDB0737D501234246F3
:101A400031462846B84701303FF477AEDDE9092337
:101A500031462846B84701303FF46FAED4E9120151
:101A600000220023FEF7A0FFD8B90E9B08F1010267
:101A7000013B31462846B84701300ED15DE60123CF
:101A80004A4631462846B84701303FF456AE08F181
:101A900001080E9B013B4345F1DC534604F1500223
:101AA000E0E64FF0000804F11A09F2E7012342468C
:101AB000DFE701234A4631462846B84701303FF464
:101AC0003CAE08F10108E3680F995B1A4345F0DC6E
:101AD000FDE64FF0000804F11909F4E72DE9F0479D
:101AE000164699468A680B6907469342B8BF134663
:101AF000336091F843200C46DDF820800AB10133B1
:101B000033602368990642BF336802333360256827
:101B100015F0060506D104F1190AE36832689B1A2C
:101B2000AB4228DC94F84320131E226818BF01231F
:101B300092062DD44946384604F14302C04701308D
:101B400020D02368E56803F00603042B18BF0025A6
:101B500032684FF00006A36808BFAD1A226908BFBB
:101B600025EAE5759342C4BF9B1AED181A34B542B5
:101B70001AD1002008E00123524649463846C047A2
:101B8000013003D14FF0FF30BDE8F0870135C4E7E5
:101B90003020E11881F843005A1C94F84510224483
:101BA000023382F84310C5E70123224649463846EE
:101BB000C0470130E6D00136D9E700002DE9FF47E4
:101BC0000C46277E9146782F80469A460C9904F160
:101BD000430207D8622F0AD8002F00F0D980582F6F
:101BE00000F0A48004F1420684F842703AE0A7F1C4
:101BF0006303152BF6D801A050F823F0551C0008FC
:101C0000691C0008E51B0008E51B0008E51B00082F
:101C1000E51B0008691C0008E51B0008E51B00081F
:101C2000E51B0008E51B0008771D0008991C00084B
:101C3000591D0008E51B0008E51B0008991D000858
:101C4000E51B0008991C0008E51B0008E51B0008BF
:101C5000611D00080B6804F142061A1D1B680A602A
:101C600084F842300123A4E0256808682E0600F1BC
:101C700004030AD505680B60002D03DA2D236D429D
:101C800084F843300A235E4819E015F0400F0568D8
:101C90000B6018BF2DB2EFE70B682568181D0860B0
:101CA000280601D51D6802E06906FBD51D886F2F47
:101CB0000CBF08230A235248002184F843106668A9
:101CC000002EA8BF2168A660A4BF21F004012160F6
:101CD0000DB9002E4DD01646B5FBF3F103FB11579D
:101CE000C75D06F8017D2F46BB420D46F4D9082B8F
:101CF0000BD12368DF0708D5236961689942DEBFED
:101D0000302306F8013C06F1FF36921B22614B4658
:101D100021464046CDF800A003AAFFF7DFFE0130C0
:101D20004CD14FF0FF3004B0BDE8F087344884F860
:101D300045700E68236856F8045B1F060E6014D5C4
:101D4000D90744BF43F0200323601DB9236823F063
:101D5000200323601023AFE7236843F020032360B0
:101D60007823284884F84530E3E75E0648BFADB2E3
:101D7000E6E71646BBE70B6826681D1D60690D6027
:101D800035061B6801D5186002E07106FBD5188086
:101D9000002316462361BAE70B681A1D0A601E6805
:101DA00000213046626801F00DFA08B1801B6060C6
:101DB00063682361002384F84330A8E7324649462C
:101DC00040462369D0470130ABD023689B0713D42A
:101DD000E068039B9842B8BF1846A4E70123324647
:101DE00049464046D04701309BD00135E36803990E
:101DF0005B1AAB42F2DCEBE7002504F11906F5E7CC
:101E0000CE400008DF40000870B50E46054618B108
:101E100083690BB901F0C4F8AB69AC6813B9284603
:101E200001F0BEF82C4B9C4220D16C68636EDB073E
:101E300005D4A389980502D4A06D01F054F9A389B3
:101E400019071DD52369DBB1013EA36816F8011FF0
:101E5000013BA36039BB002B38DA22460A21284611
:101E600000F048F8013011D00A2511E01B4B9C42CC
:101E700001D1AC68DAE71A4B9C4208BFEC68D5E7A1
:101E80002146284600F088F80028DDD04FF0FF35C5
:101E9000636EDA0705D4A3899B0502D4A06D01F017
:101EA00023F9284670BD002B04DAA2699A4206DCA9
:101EB0000A2904D023685A1C22601970C5E72246FB
:101EC000284600F017F80130BFD1DFE70A25236864
:101ED0005A1C22601D70DBE7A4410008C4410008C1
:101EE00084410008024B01461868FFF78DBF00BF10
:101EF0000C000020F8B50E461446054618B183695B
:101F00000BB901F04DF8214B9C422BD16C68A369B1
:101F1000A360A3891A072FD523696BB323692068AF
:101F2000F6B2C01A63693746834204DC214628466C
:101F300000F0A2FF30BBA3680130013BA36023681F
:101F40005A1C22601E706369834204D0A389DB0798
:101F500006D50A2E04D12146284600F08DFF88B907
:101F60003846F8BD0A4B9C4201D1AC68CFE7094B1B
:101F70009C4208BFEC68CAE72146284600F00CF8EE
:101F80000028CBD04FF0FF37EAE700BFA44100089C
:101F9000C441000884410008324B70B51D680646F4
:101FA0000C4625B1AB6913B9284600F0F9FF2E4B5A
:101FB0009C420FD16C68A389B4F90C2019072CD46A
:101FC000DD0611D40923336042F040034FF0FF30A7
:101FD000A3813EE0254B9C4201D1AC68EBE7244B4A
:101FE0009C4208BFEC68E6E7580712D5616B41B127
:101FF00004F14403994202D0304601F08FFC0023E3
:102000006363A38923F02403A3810023636023690E
:102010002360A38943F00803A38123694BB9A389F3
:1020200003F42073B3F5007F03D02146304601F05E
:1020300081F8A089B4F90C2010F001030AD0002324
:10204000A36063695B42A361236943B910F0800018
:10205000BAD170BD810758BF6369A360F4E700205F
:10206000F7E700BF0C000020A4410008C4410008AD
:10207000844100082DE9F74F03690C690746A34224
:10208000C0F28380013C00F1140501F1140805EB56
:102090008403019358F8243055F8242001339A42E0
:1020A000B2FBF3F64FEA840B08EB840932D34FF00E
:1020B000000E4046AC46F24650F8042B93B206FBA5
:1020C00003E3120C4FEA134E06FB02E29BB2AAEBAB
:1020D0000303DCF800A04FEA124E1FFA8AFA5344B9
:1020E0001FFA82FADCF800208145CAEB124202EBAB
:1020F00023429BB243EA02434FEA224A4CF8043B94
:10210000DAD255F80B302BB9019B043B9D421A469D
:102110002FD33C61384601F0EBFA002825DB284636
:102120004FF0000C013658F8041BD0F800E08BB2D9
:10213000ACEB03031FFA8EF213440A0CC2EB1E42EF
:1021400002EB23429BB243EA0243C1454FEA224CD1
:1021500040F8043BE7D255F8242005EB840322B96C
:10216000043B9D421A460AD33C61304603B0BDE8A9
:10217000F08F1268043B002ACBD1013CC6E71268FD
:10218000043B002AF0D1013CEBE70020EEE7000021
:102190002DE9F04F16461F46446A99B00546CDE931
:1021A0000467DDF8948074B9102001F003F802464A
:1021B000686220B9EA21AE4BAE4801F0BBFCC0E931
:1021C00001440460C4606B6A196851B15A68012304
:1021D00093404A608B60284601F050F800226B6AF9
:1021E0001A603B1EAFBF0023012223F0004305937A
:1021F000A8BFC8F80030DDF814909F4BB8BFC8F8EE
:10220000002033EA090319D142F20F73249A1360B4
:10221000C9F31303334300F08085269B53B9974BD2
:1022200022E0974B08930833269A1360089819B058
:10223000BDE8F08F914B08930333F5E7DDE90434F3
:10224000CDE90C34DDE90C0100220023FEF7ACFBE4
:10225000804658B10123249A1360269B002B00F07E
:10226000598588481860431E0893DFE716AB019331
:1022700017AB00932846DDE90C2301F0E5FAC9F31A
:102280000A548246002C7ED0DDE90C010D9BA4F29D
:10229000FF34C3F3130343F07F5141F44011CDF8F1
:1022A0004C800022784BFDF75FFF6BA3D3E900233E
:1022B000FEF712F96AA3D3E90023FDF757FF06469C
:1022C00020460F46FEF79EF867A3D3E90023FEF7EA
:1022D00003F902460B4630463946FDF747FF0646EE
:1022E0000F46FEF7A9FB00228146002330463946FF
:1022F000FEF764FB48B14846FEF784F832463B4699
:10230000FEF752FB08B909F1FF39B9F1160F57D89A
:10231000DDE90C015D4B03EBC903D3E90023FEF7B4
:102320004DFB00284ED0002309F1FF390F93169B77
:102330001C1B631E099349BFC4F1010300230693CC
:10234000002354BF06930993B9F1000F3CDB099BAE
:10235000CDF838904B44099300230A93229B092B14
:102360006CD8052BC4BF043B2293229BC8BF00241A
:10237000A3F10203D8BF0124032B00F28B80DFE816
:1023800003F02D4F4D5BDDE916431C4404F232434C
:10239000202BC3BFC3F1400304F2124009FA03F338
:1023A000C3F12003C6BF26FA00F0184306FA03F073
:1023B000FEF718F80123A1F1F871013C139370E7BF
:1023C0000123B3E70F90B2E7069BA3EB0903069343
:1023D000C9F100030A9300230E93BFE700230B9378
:1023E000239B002B59DC4FF0010B5B46CDF808B066
:1023F000CDF88CB00022686A4260042202F1140613
:102400009E4241684FD9284600F0F8FE0890002807
:102410004DD102464FF4D5711D4BCDE60123DEE7C9
:1024200000230B93239B09EB030B0BF10103012BFF
:102430000293B8BF0123DDE70123F2E70124002363
:102440000B9422934FF0FF3B00221223CDF808B0EB
:102450002392CFE7AFF3008061436F63A787D23F3A
:10246000B3C8608B288AC63FFB799F501344D33F83
:10247000FD400008144100080000F07FF94000080A
:10248000F0400008CD4000080000F83F704200080E
:102490007341000801230B93D4E7DDF88CB05B4651
:1024A000CDF808B0A6E7013141605200A6E76B6A9B
:1024B000089A1A60029B0E2B00F2A880002C00F0F4
:1024C000A580B9F1000F34DD9A4A09F00F0302EB41
:1024D000C30319F4807FD3E90034CDE910344FEA07
:1024E000291416D0DDE90C01934B0327D3E9082307
:1024F000FEF71CF9CDE9040104F00F048E4E54B927
:10250000DDE91023DDE90401FEF710F9CDE904014E
:1025100029E00227F2E7E10708D5DDE91001D6E955
:102520000023FDF7D9FFCDE910010137641008360B
:10253000E5E700F0A580DDE90C01C9F100047D4B61
:1025400004F00F0203EBC203D3E90023FDF7C4FF3D
:1025500002270023CDE90401774E2411002C40F01E
:102560008480002BD2D10F9B002B00F08B80DDE903
:102570000434CDE91034DDE9100100226F4BFEF781
:102580001DFA00287ED0029B002B7BD0BBF1000FF0
:1025900038DDDDE910010022694BFDF79DFF5C4647
:1025A000CDE9040109F1FF3801373846FDF72AFF6C
:1025B000DDE90423FDF790FF0022624BFDF7D6FD15
:1025C000A1F15076CDE910011196002C5DD1DDE925
:1025D000040100225C4BFDF7C7FD02460B46CDE926
:1025E00004233346109AFEF707FA002840F09E8233
:1025F000DDE90401109A06F10043FEF7DFF9002837
:1026000040F09282DDE90C34CDE90434179B002BB5
:10261000C0F25381B9F10E0F00F34F81454B03EB2C
:10262000C903D3E90034CDE90634239B002B80F2A3
:10263000DB80029B002B00F3D78040F07482DDE941
:1026400006010022404BFDF747FFDDE90423FEF7BA
:10265000C9F9029C2646002840F04A823123089F8F
:1026600009F1010907F8013B46E2E20705D5D6E981
:102670000023FDF731FF01230137641008366DE7B1
:10268000022770E7C846029C8FE70899294B21442E
:1026900012910B9903EBC403DDE9106753E90223A0
:1026A000002955D000202949FEF740F83B46324624
:1026B000FDF75AFDCDE91001089FDDE90401FEF7A1
:1026C000BBF90446FDF79EFE02460B46DDE9040118
:1026D000FDF74AFD02460B463034CDE90423DDE91F
:1026E000102307F8014BFEF769F9002874D1DDE9E2
:1026F000042300201149FDF737FDDDE91023FEF723
:102700005DF9002840F0B680129B9F423FF47AAFFB
:10271000DDE9100100220A4BFDF7DEFE0022CDE9C3
:102720001001DDE90401064BFDF7D6FECDE90401F9
:10273000C3E700BF70420008484200080000F03FB5
:102740000000244000001C40000014400000E03F56
:1027500030463946FDF7C0FE129BCDE91001089CBA
:102760001493DDE90401FEF767F91590FDF74AFEC1
:1027700002460B46DDE90401FDF7F6FC159B064613
:10278000303304F8013B129B0F469C424FF000028D
:1027900024D1DDE91001B34BFDF7E8FC02460B46FE
:1027A00030463946FEF728F9002862D1DDE91023CA
:1027B0000020AC49FDF7D8FC02460B4630463946AE
:1027C000FEF7FCF800283FF41DAF149F7B1E149306
:1027D00017F8013C302BF8D0C1463AE0A24BFDF788
:1027E0007BFECDE90401BCE7089FDDE90623DDE9B6
:1027F0000401FDF79BFFFEF71FF90446FDF702FEFB
:10280000DDE90623FDF768FE04F130060B460246BB
:10281000DDE90401FDF7A8FC07F8016B089E029BA7
:10282000BE1BB3423AD102460B46FDF79FFC02465F
:102830000B46CDE90223DDE90623FEF7DDF858BBA0
:10284000DDE90623DDE90201FEF7AEF808B1E10794
:1028500022D42846514600F011FD00233B70249BF2
:1028600009F101001860269B002B3FF4DFAC1F60CC
:10287000DCE427463B461F4613F8012D392A07D1D1
:10288000089A9A42F7D13022089908F101080A7093
:102890001A7801321A709FE7C846EBE70022724BA4
:1028A000FDF71AFE02460B46CDE904230022002361
:1028B000FEF77AF8002898D0CBE70B9A002A00F0B0
:1028C000CD80229A012A00F3AF80139A002A00F0EB
:1028D000A78003F233430A9C069F069A01211A44FB
:1028E0000692099A28461A44099200F081FD06468C
:1028F000002F0CDD099B002B09DDBB42A8BF3B4626
:10290000069AFF1AD21A0692099AD31A09930A9BB9
:10291000F3B10B9B002B00F0A980002C10DD314699
:102920002246284600F01EFE52460146064628462C
:1029300000F074FD80465146284600F09FFCC246D8
:102940000A9B1A1B04D05146284600F00BFE824613
:102950000121284600F04CFD0E9B0446002B40F35D
:1029600087801A460146284600F0FCFD229B04465B
:10297000012B40F380804FF00008236904EB8303B0
:10298000186900F0E7FCC0F12000099B184410F022
:102990001F0000F09280C0F12003042B40F38A80D6
:1029A000C0F11C00069B074403440693099B0344A3
:1029B0000993069B002B05DD51461A46284600F078
:1029C0002BFE8246099B002B05DD21461A46284630
:1029D00000F022FE04460F9B002B70D0214650468B
:1029E00000F086FE00286ADA002351460A222846B3
:1029F00000F066FC0B9B824609F1FF39002B00F0CA
:102A00009381314600230A22284600F059FCBBF18D
:102A1000000F064600F39380229B022B57DC8EE0CA
:102A2000169BC3F1360356E7029B5C1E0A9BA3422A
:102A3000B7BF0A9B1C1BE21A0E9BBEBF0A949B18D1
:102A40000E93029BB8BF0024002BBBBF069B029ACB
:102A5000069F9F1AACBF029B00233EE70A9C069F7D
:102A60000B9E45E70000E03F000024400A9A6AE719
:102A7000229B012B19DC049BBBB9059BC3F31303F9
:102A80009BB9059B23F000431B0D1B0583B14FF041
:102A90000108069B01330693099B013309930E9BA2
:102AA000002B7FF46AAF01206FE74FF00008F6E7D4
:102AB0009846F4E73FF47DAF18461C3072E7029B5E
:102AC000002B36DC229B022B33DDDDF808B0BBF196
:102AD000000F0DD121465B460522284600F0F0FB91
:102AE00001460446504600F003FE00283FF7B6AD0D
:102AF000239B089F6FEA03094FF0000821462846F0
:102B000000F0BCFB002E3FF4A4AEB8F1000F05D0DE
:102B1000B04503D04146284600F0B0FB3146284678
:102B200000F0ACFB95E600242646E1E7C1462646C8
:102B300094E50B9BDDF808B0002B00F0FC80002F23
:102B400005DD31463A46284600F066FD0646B8F1F6
:102B5000000F5CD02846716800F050FB074628B98A
:102B6000024640F2EA217E4BFFF726BB326906F1AE
:102B70000C01023292000C3000F032FB0122394687
:102B8000284600F049FDB0460646089B01330293F3
:102B9000089B5B440A93049B03F001030993029B87
:102BA0002146504603F1FF3BFFF764FA03464146D6
:102BB0003033049050460B9300F09AFD3246069055
:102BC0002146284600F0B0FDC26807460B9B02BBB9
:102BD0000146504600F08CFD02460B9B39462846C4
:102BE000CDE90B3200F04AFB229B0C9A029F43EA8C
:102BF0000201099B0B430B9B0DD1392B27D0069A61
:102C0000002A01DD049B31338BF8003076E7304633
:102C1000B9E70122E2E70699002904DB2298014383
:102C20000998014320D1002AEEDD514601222846B1
:102C3000029300F0F1FC2146824600F059FD002885
:102C4000029B02DCE0D1DA07DED5392BDAD1392359
:102C50008BF800303B461F4617F8012C013B392A00
:102C600050D001321A7049E7002A03DD392BEED02B
:102C70000133C9E7029A0A9902F8013C8A422AD034
:102C8000514600230A22284600F01AFBB04582462E
:102C90004FF000034FF00A024146284607D100F0EA
:102CA0000FFB80460646029B0133029377E700F054
:102CB00007FB3146804600230A22284600F000FB2D
:102CC0000646F0E7BBF1000FCCBF5F4601274FF08F
:102CD0000008089A1744514601222846029300F042
:102CE0009BFC2146824600F003FD0028B2DC02D1A5
:102CF000029BDB07AED43B461F4613F8012D302A5A
:102D0000FAD0FBE6089A9A42A5D1312309F10109CC
:102D10001370F3E6134BFFF7A7BA269B002B7FF443
:102D200080AA114BFFF7A0BABBF1000F03DC229B76
:102D3000022B3FF7CCAE089F21465046FFF79AF989
:102D4000089A00F1300307F8013BBA1A9345B9DD40
:102D5000514600230A22284600F0B2FA8246EBE7E9
:102D600073410008CC400008F04000088A892DE932
:102D7000F041054610070C4658D44B68002B05DC83
:102D80000B6C002B02DC0020BDE8F081E66A002E0F
:102D9000F9D0002312F480522F682B6032D0606D7E
:102DA000A3895A0705D56368C01A636B0BB1236CFE
:102DB000C01A00230246E66A2846216AB047431C2F
:102DC000A38906D129681D292CD82A4ACA40D607CA
:102DD00028D5002262602269D904226004D5421CF1
:102DE00001D12B6803B96065616B2F600029CAD0DF
:102DF00004F14403994202D0284600F08FFD0020E0
:102E00006063C1E7216A01232846B047411CC7D14E
:102E10002B68002BC4D01D2B01D0162B01D12F60A5
:102E2000B1E7A38943F04003A381ADE70F69002F09
:102E3000A9D0930718BF00230E6808BF4B69A6EB03
:102E400007080F608B60B8F1000F9CDD43463A46DF
:102E50002846216AA66AB047002806DCA3894FF0FD
:102E6000FF3043F04003A3818EE70744A8EB00083E
:102E7000E9E700BF0100402038B50B6905460C4664
:102E800013B90025284638BD18B183690BB900F085
:102E900087F8144B9C421BD16C68B4F90C30002BA2
:102EA000EFD0626ED00704D4990502D4A06D00F073
:102EB0001AF928462146FFF759FF636E0546DA07DF
:102EC000E0D4A3899B05DDD4A06D00F00DF9D9E70E
:102ED000054B9C4201D1AC68DFE7044B9C4208BF24
:102EE000EC68DAE7A4410008C44100088441000806
:102EF000002310B50446C0E90033C0E90433836001
:102F000081814366C2818361194608225C30FEF7E5
:102F100013FB054B24626362044BA362044BE36220
:102F2000044B236310BD00BF893A0008AB3A000888
:102F3000E33A0008073B0008014900F0AFB800BFC2
:102F4000792E000870B568254A1E55430E4605F1D6
:102F5000740100F02FFD044640B10021C0E90016C5
:102F60000C30A06005F16802FEF7E6FA204670BD5D
:102F7000014800F0B8B800BF1C020020014800F072
:102F8000B3B800BF1C020020014800F0ACB800BF7D
:102F900017020020014800F0A7B800BF1702002068
:102FA00010B50446FFF7F0FFA3691BB1BDE8104060
:102FB000FFF7F0BFC4E912332365134B134A1B68B4
:102FC000A262A34208BF0123204608BFA36100F00C
:102FD0001FF86060204600F01BF8A060204600F05B
:102FE00017F800220421E0606068FFF781FF0122EA
:102FF0000921A068FFF77CFF02221221E068FFF799
:1030000077FF0123A361D1E7B8400008392F0008FA
:10301000F8B50746FFF7ACFF1E4B1E68B36913B93E
:103020003046FFF7BDFF4836D6E90134013B03D5F2
:1030300033680BB33668F7E7B4F90C50D5B9164BC3
:1030400004F15800E360656600F04CF8FFF796FF66
:1030500008222946C4E90155C4E904552560A56143
:1030600004F15C00FEF768FAC4E90D55C4E9125595
:103070002046F8BD6834D9E704213846FFF762FFDF
:10308000044630600028D5D1FFF778FF0C233B6061
:10309000EEE700BFB84000080100FFFF2DE9F8434C
:1030A00006468846002700F14804D4E90195B9F1A5
:1030B000010905D52468002CF7D13846BDE8F8830E
:1030C000AB89012B07D9B5F90E30013303D029465E
:1030D0003046C04707436835E9E7000000487047BD
:1030E0006001002070477047704770B50E46B1F917
:1030F0000E10144600291D4696B007DA00232B60F7
:10310000B3891A0610D44FF480630EE06A4600F0CB
:1031100051FD0028F2DB019A02F47042A2F500533F
:103120005A425A412A60EEE740230020236016B03D
:1031300070BD00008B8973B59D0706460C4607D508
:1031400004F14703236023610123636102B070BD72
:103150006A4601ABFFF7C9FF00990546304600F00B
:1031600029FC48B9B4F90C309A05EFD423F00303D5
:1031700043F00203A381E3E70D4BB362A389206010
:1031800043F08003A381009B20616361019B5BB1DD
:103190003046B4F90E1000F01FFD28B1A38923F0CA
:1031A000030343F00103A381A0890543A581CDE773
:1031B000392F0008024B0146186800F0FBBB00BF26
:1031C0000C000020034610B5C9B2024493421846D1
:1031D00001D1002003E0047801338C42F6D110BD08
:1031E0000A44914200F1FF3300D1704710B511F845
:1031F000014B914203F8014FF9D110BD70B5466AF9
:1032000004460D4676B91020FFF7D4FF02466062EF
:1032100020B96621174B184800F08CFCC0E9016604
:103220000660C660666AF36883B1636ADB6853F858
:103230002500B8B9012101FA05F6721D2046920059
:1032400000F05EFB60B1C0E901560EE021220421CE
:10325000204600F055FB636AF060DB68002BE4D188
:10326000002070BD026843F825200023C0E9033325
:10327000F7E700BFFD400008E441000870B5466A6A
:1032800005460C4676B91020FFF794FF02466862A7
:1032900020B98A21084B094800F04CFCC0E90166BE
:1032A0000660C6603CB16B6A6268DB6853F8221046
:1032B000216043F8224070BDFD400008E441000851
:1032C0002DE9F04198460C4600230E69074601F1AE
:1032D000140005680133A9B202FB01812D0C4FEAED
:1032E000114C02FB05C589B201EB05419E424FEA34
:1032F000154840F8041BECDCB8F1000F22D0A3689D
:10330000B34219DC616838460131FFF777FF0546A3
:1033100028B90246B5210D4B0D4800F00BFC22697F
:1033200004F10C01023292000C30FFF759FF2146E4
:103330003846FFF7A3FF2C4604EB86030136C3F89B
:10334000148026612046BDE8F08100BF734100086B
:10335000E4410008020C12040346CAB90304102019
:1033600013F07F4F04BF1B02083013F0704F04BFEF
:103370001B01043013F0404F04BF9B000230002BB0
:1033800005DB13F0804F00F1010008BF20207047DB
:103390000020E5E70368024613F007000BD0D907C9
:1033A00022D4980749BF5B089B08012013605CBFCB
:1033B00002201360704799B209B910201B0C13F05A
:1033C000FF0F04BF1B0A0830190704BF1B09043094
:1033D000990704BF9B080230D90703D45B0800F1AA
:1033E000010003D013607047002070472020704711
:1033F00010B50C460121FFF701FF024628B94FF432
:10340000A071044B044800F095FB01234461036163
:1034100010BD00BF73410008E44100082DE9F04FE2
:1034200014460A6923690D469A42BEBF0B462546DB
:103430001C46D5F810A0D4F81090AB6869680AEB68
:103440000907BB4285B0B8BF0131FFF7D7FE30B9DD
:10345000024640F25D11414B414800F06BFB00F128
:1034600014063346002206EB870843451ED305F1B8
:10347000140C04F114030CEB8A0C03EB8902029286
:10348000ACEB0502153A22F00302043205F11501F6
:103490008C4538BF04220192029A03939A4208D8BD
:1034A000002F55DC076105B0BDE8F08F43F8042B11
:1034B000DBE7B3F800A0BAF1000F20D0B14600223C
:1034C00005F1140E5EF8044BD9F800B0A1B21FFA52
:1034D0008BFB0AFB01B11144D9F80020240C120C1B
:1034E0000AFB042404EB114489B241EA0441F44587
:1034F0004FEA144249F8041BE4D801997250039A28
:103500000433B2F80290B9F1000F1FD0B6464FF065
:10351000000A346805F114010A88BEF802B0A4B2AA
:1035200009FB02B2924444EA0A444EF8044B51F8B3
:10353000044BBEF80020240C09FB04248C4504EB4A
:103540001A444FEA144AE7D8019AB4500436A3E764
:1035500058F8043D002BA5D1013FA1E773410008B5
:10356000E44100082DE9F843154612F0030206462F
:103570000F4607D0254C013A002354F82220FFF7CC
:103580009FFE0746AD103DD0746A7CB91020FFF74E
:1035900011FE0246706228B94FF4D7711C4B1D48CA
:1035A00000F0C8FAC0E901440460C460D6F8248081
:1035B000D8F808404CB940F271213046FFF718FFA7
:1035C00000230446C8F8080003604FF00009EB0729
:1035D0000AD5394622463046FFF720FF8046394655
:1035E0003046FFF74BFE47466D100BD0206838B9C8
:1035F000224621463046FFF711FF2060C0F80090B8
:103600000446E4E73846BDE8F88300BF38430008C5
:10361000FD400008E44100082DE9F0470C4607464C
:1036200091462369496803EB6218A3684FEA621A5E
:1036300008F10106B3420BDB3846FFF7DFFD054614
:1036400048B9024640F2D911274B284800F072FAD7
:1036500001315B00EEE7002300F1140100F11002DC
:103660001846534533DB20692AEAEA7A04F1140349
:1036700019F01F0901EB8A0103EB800C2BD08A465D
:103680000022C9F1200E186800FA09F002434AF836
:10369000042B53F8042B9C4522FA0EF2F3D8ACEB22
:1036A0000403153B23F00303043304F115008445A0
:1036B00038BF0423CA500AB108F10206013E384659
:1036C00021462E61FFF7DAFD2846BDE8F08742F873
:1036D000040F0133C5E7043953F8042B9C4541F826
:1036E000042FF9D8EAE700BF73410008E44100085D
:1036F00003460A69006930B5801A0DD114331431BC
:1037000003EB820401EB820154F8045D51F8042DAF
:10371000954202D004D3012030BDA342F4D3FBE78D
:103720004FF0FF30F8E700002DE9F84F0C46064651
:10373000114620469246FFF7DBFF051E11D12946B0
:103740003046FFF75BFD024628B940F232213C4B80
:103750003C4800F0EFF90123C0E904351046BDE80C
:10376000F88FA4BF5346A2463046DAF80410A6BF2D
:103770001C4600250125FFF741FD024618B94FF40C
:1037800010712F4BE4E700F11408DAF81070C560EF
:103790004FF0000C0AF114050AF11000C246266928
:1037A00004F1140905EB870E09EB860650F804BFF7
:1037B00059F8043B1FFA8BF161441FFA83FC1B0C80
:1037C000A1EB0C01C3EB1B4303EB214389B24FEA8E
:1037D000234C4E4541EA03434AF8043BE6D8331BE9
:1037E000153B23F0030315340433A64238BF0423EA
:1037F0001D4443441E462C4674450ED30EF103016E
:10380000491B21F00301033DAE4538BF0021194497
:1038100051F8043D8BB11761A0E754F8048B1FFAEF
:1038200088F16144081400EB184089B241EA004174
:103830004FEA204C46F8041BDEE7013FE8E700BFF3
:1038400073410008E44100082DE9F3410121DDE95D
:10385000087690461D46FFF7D1FC044630B9024673
:1038600040F20A31244B254800F064F9C5F31303F4
:10387000C5F30A552DBB0193B8F1000326D0684665
:103880000093FFF787FD0099F0B1019AC0F1200382
:1038900002FA03F30B43C24063610192019B002BC8
:1038A00014BF02210121A3612161C5B1A5F23345F5
:1038B0000544C0F135003D603060204602B0BDE8EF
:1038C000F08143F48013D6E76161E7E701A8FFF7D1
:1038D00061FD0121019B216163612030E5E704EB7B
:1038E0008103A0F2324038601869FFF733FDC0EB66
:1038F00041113160E1E700BF73410008E441000875
:1039000038B502FB01F5294600F054F8044618B119
:103910002A460021FDF710FE204638BD38B5054681
:10392000002943D051F8043C0C1F002BB8BFE41809
:1039300000F086F91E4A1368104633B963601460BC
:103940002846BDE8384000F081B9A3420AD9216871
:103950006218934201BF1A685B6852182260636064
:103960000460EDE71A465B680BB1A342FAD911680F
:103970005018A0420BD120680144501883421160B6
:10398000DED118685B68014411605360D8E702D942
:103990000C232B60D4E7206821188B4201BF1968E3
:1039A0005B680918216063605460C9E738BD00BFD7
:1039B00008020020F8B5CD1C25F0030508350C2DB4
:1039C00038BF0C25002D064601DBA94203D90C2384
:1039D00033600020F8BD00F033F921490A6814462D
:1039E0009CB9204F3B6823B92146304600F03CF893
:1039F00038602946304600F037F8431C23D10C23A9
:103A00003046336000F022F9E3E723685B1B17D4EC
:103A10000B2B03D923601C44256004E06368A24299
:103A20000CBF0B605360304600F010F904F10B003E
:103A3000231D20F00700C21ACCD01B1AA350C9E7DF
:103A400022466468CCE7C41C24F00304A042E3D0FF
:103A5000211A304600F008F80130DDD1CFE700BF71
:103A6000080200200C02002038B50023054D044652
:103A700008462B6000F0EAFA431C02D12B6803B120
:103A8000236038BD2002002010B50C46B1F90E109D
:103A900000F03AFA0028ABBF636DA3891B1823F42A
:103AA0008053ACBF6365A38110BD2DE9F0411F4673
:103AB0008B890546DB050C46164605D502230022F8
:103AC000B1F90E1000F098F8A389324623F4805320
:103AD000A38128463B46B4F90E10BDE8F04100F042
:103AE00017B810B50C46B1F90E1000F085F8431C5C
:103AF000A38915BF606523F4805343F48053A381E9
:103B000018BFA38110BDB1F90E1000F031B800004C
:103B100038B50446084611460022054D2A601A466B
:103B2000FDF763F9431C02D12B6803B1236038BD54
:103B3000200200201FB514461A46094B05461B6893
:103B4000D8684CB1074BCDE9013400912B460649AA
:103B500000F01EF800F0F7F9044B1C46F3E700BF35
:103B60000C00002044430008514300087F43000834
:103B700038B50023054D044608462B6000F02EFAA8
:103B8000431C02D12B6803B1236038BD2002002002
:103B90000EB403B5014603AB054853F8042B006887
:103BA000019300F081F802B05DF804EB03B07047B8
:103BB0000C00002038B50023064D04460846114687
:103BC0002B6000F013FA431C02D12B6803B1236071
:103BD00038BD00BF2002002038B50023054D044643
:103BE00008462B6000F012FA431C02D12B6803B187
:103BF000236038BD2002002038B50446084611462F
:103C00000022054D2A601A4600F010FA431C02D12A
:103C10002B6803B1236038BD2002002082B001B9B7
:103C200001A942B14BB113780B601278101E18BF76
:103C3000012002B070471046FBE76FF00100F8E783
:103C40000148FFF750BA00BF180200200148FFF7F3
:103C50004BBA00BF18020020936810B4013B002B40
:103C6000936007DA9469A34201DB0A2902D110BCF0
:103C7000FEF740B91368581C10601970084610BC54
:103C80007047F8B506460F461446D518AC4201D128
:103C9000002007E03A46304614F8011BFFF7DCFF2E
:103CA000431CF3D1F8BD00002DE9F04F0D4614463A
:103CB000984606469DB018B183690BB9FFF770F9B5
:103CC000894B9D421BD175686B6ED90705D4AB89B2
:103CD0009A0502D4A86DFFF706FAAB891B0701D538
:103CE0002B69EBB929463046FEF756F9C0B16B6E29
:103CF000DC070ED54FF0FF301DB0BDE8F08F7B4BD9
:103D00009D4201D1B568DFE7794B9D4208BFF56858
:103D1000DAE7AB899805EDD4A86DFFF7E5F9E9E797
:103D20000023099320238DF8293030234FF0010917
:103D3000CDF80C80DFF8BC818DF82A3023469A46F6
:103D400013F8012B0AB1252AF9D1BAEB040B0BD0D9
:103D50005B46224629463046FFF793FF013000F0CC
:103D6000AA80099A5A4409929AF80030002B00F070
:103D7000A28000234FF0FF32CDE905230AF1010AAA
:103D8000049307938DF853301A935446052214F880
:103D9000011B5848FFF716FA049AD8B9D10644BF58
:103DA00020238DF85330130744BF2B238DF8533055
:103DB0009AF800302A2B15D0544600204FF00A0CF8
:103DC000079A214611F8013B303B092B4ED9B0B17F
:103DD000079214E0A0EB080309FA03F31343A24689
:103DE0000493D2E7039B191D1B680391002BBBBFF3
:103DF0005B4242F0020207930793B8BF0492237814
:103E00002E2B0CD163782A2B35D1039B02341A1D3B
:103E10001B680392002BB8BF4FF0FF330593DFF808
:103E2000E4A0032250462178FFF7CCF940B14023AB
:103E3000A0EB0A0003FA00F0049B0134034304934F
:103E400014F8011B06222C488DF82810FFF7BAF948
:103E500000283FD0294B1BBB039B073323F00703EC
:103E600008330393099B3B44099367E70C46012001
:103E70000CFB0232A5E700234FF00A0C194601346F
:103E80000593204610F8012B303A092A03D9002B5C
:103E9000C5D00591C3E7044601230CFB0121F0E7DF
:103EA00003AB00932A463046154B04A9FDF7EAFB05
:103EB0000746781CD6D16B6ED90705D4AB899A0515
:103EC00002D4A86DFFF710F9AB895B063FF512AF7E
:103ED000099811E703AB00932A463046084B04A922
:103EE000FDF76CFEE4E700BFA4410008C4410008F0
:103EF000844100088A43000894430008851600089E
:103F0000833C00089043000838B504460846114633
:103F10000022054D2A601A4600F090F8431C02D199
:103F20002B6803B1236038BD2002002003460846F9
:103F300041B1FF2A04D98A224FF0FF301A6070473E
:103F400001200A707047062008B500F02BF8012008
:103F500000F08AF81F2938B504460D4604D9162307
:103F600003604FF0FF3038BD426C12B152F821307F
:103F70004BB9204600F030F82A4601462046BDE8FD
:103F8000384000F017B8012B0AD0591C03D1162372
:103F900003600120E7E70024284642F825409847BF
:103FA0000020E0E7024B01461868FFF7D3BF00BFCF
:103FB0000C00002038B50023064D04460846114683
:103FC0002B6000F02BF8431C02D12B6803B1236057
:103FD00038BD00BF2002002000F010B85822024B6C
:103FE0004FF0FF301A607047200200205822024B29
:103FF0004FF0FF301A607047200200205822024B19
:104000004FF0FF301A607047200200205822024B08
:1040100000201A60704700BF200200205822024B87
:104020004FF0FF301A607047200200205822024BE8
:104030004FF0FF301A607047200200205822024BD8
:104040004FF0FF301A60704720020020044B0246F8
:10405000196809B903491960186802441A60704761
:104060001002002028020020FEE70000F8B500BF83
:10407000F8BC08BC9E467047F8B500BFF8BC08BC49
:044080009E467047A1
:1040880050726F6772616D20697320737461727406
:10409800696E672E2E2E0D0048656C6C6F2C2053B0
:1040A800544D333220576F726C64210D00000000AC
:1040B80010000020494E4600696E66004E414E00D1
:1040C8006E616E003000303132333435363738396E
:1040D800414243444546003031323334353637386F
:1040E8003961626364656600496E66696E697479F0
:1040F800004E614E005245454E54206D616C6C6F08
:104108006320737563636565646564002F62756910
:104118006C642F676E752D746F6F6C732D666F727C
:104128002D73746D33325F392D323032302D713248
:104138002D7570646174652E323032303130303113
:104148002D313632312F7372632F6E65776C696249
:104158002F6E65776C69622F6C6962632F73746464
:104168006C69622F64746F612E630042616C6C6FBE
:10417800632073756363656564656400000000000F
:104188000000000000000000000000000000000027
:104198000000000000000000000000000000000017
:1041A8000000000000000000000000000000000007
:1041B80000000000000000000000000000000000F7
:1041C80000000000000000000000000000000000E7
:1041D8000000000000000000000000002F62756968
:1041E8006C642F676E752D746F6F6C732D666F72AC
:1041F8002D73746D33325F392D323032302D713278
:104208002D7570646174652E323032303130303142
:104218002D313632312F7372632F6E65776C696278
:104228002F6E65776C69622F6C6962632F73746493
:104238006C69622F6D707265632E63000000000068
:104248000080E03779C34143176E05B5B5B893468A
:10425800F5F93FE9034F384D321D30F94877825A56
:104268003CBF737FDD4F1575000000000000F03F74
:104278000000000000002440000000000000594039
:104288000000000000408F40000000000088C3408C
:1042980000000000006AF8400000000080842E4101
:1042A80000000000D01263410000000084D797414D
:1042B8000000000065CDCD41000000205FA0024253
:1042C800000000E876483742000000A2941A6D42C8
:1042D800000040E59C30A2420000901EC4BCD642BB
:1042E80000003426F56B0C430080E03779C3414366
:1042F80000A0D8855734764300C84E676DC1AB43DC
:10430800003D9160E458E143408CB5781DAF1544F9
:1043180050EFE2D6E41A4B4492D54D06CFF08044D4
:10432800F64AE1C7022DB544B49DD9794378EA44E9
:1043380005000000190000007D0000002C206675B3
:104348006E6374696F6E3A20006173736572746985
:104358006F6E2022257322206661696C65643A209D
:1043680066696C6520222573222C206C696E652095
:104378002564257325730A004300504F534958009C
:104388002E00232D302B2000686C4C006566674595
:1043980046470000202020202020202020282828F0
:1043A80028282020202020202020202020202020F5
:1043B800202020208810101010101010101010103D
:1043C800101010100404040404040404040410105D
:1043D80010101010104141414141410101010101FA
:1043E80001010101010101010101010101010110A6
:1043F80010101010104242424242420202020202CF
:104408000202020202020202020202020202021076
:104418001010102000000000000000000000000044
:104428000000000000000000000000000000000084
:104438000000000000000000000000000000000074
:104448000000000000000000000000000000000064
:104458000000000000000000000000000000000054
:104468000000000000000000000000000000000044
:104478000000000000000000000000000000000034
:104488000000000000000000000000000000000024
:044498000000000020
:04449C0035010008DE
:0444A00011010008FE
:1044A4003F065B4F666D7D077F6F000010000020A4
:1044B40000000000A4410008C44100088441000831
:1044C40000000000000000000000000000000000E8
:1044D40000000000000000000000000000000000D8
:1044E40000000000000000000000000000000000C8
:1044F40000000000000000000000000000000000B8
:1045040000000000000000000000000000000000A7
:104514004300000000000000000000000000000054
:104524000000000000000000000000000000000087
:104534004300000000000000000000000000000034
:104544000000000000000000000000000000000067
:104554004300000000000000000000000000000014
:104564000000000000000000000000000000000047
:1045740043000000000000000000000000000000F4
:104584000000000000000000000000000000000027
:1045940043000000000000000000000000000000D4
:1045A4000000000000000000000000000000000007
:1045B40043000000000000000000000000000000B4
:1045C40000000000000000000000000000000000E7
:1045D4004300000000000000000000000000000094
:1045E40000000000000000000000000000000000C7
:1045F4002D3F00081D3C0008000000009B430008FC
:10460400884300087F4300087F4300087F43000875
:104614007F4300087F4300087F4300087F4300086E
:104624007F4300087F430008FFFFFFFFFFFFFFFFFA
:10463400FFFFFFFFFFFF0000010041534349490012
:104644000000000000000000000000000000000066
:1046540000000000000000000000415343494900ED
:104664000000000000000000000000000000000046
:0C4674000000000000000000000000003A
:04000005080014A536
:00000001FF
